{
  "_format": "hh-sol-artifact-1",
  "contractName": "DrivingLicense",
  "sourceName": "contracts/src/DrivingLicense.sol",
  "abi": [
    {
      "inputs": [],
      "stateMutability": "nonpayable",
      "type": "constructor"
    },
    {
      "inputs": [
        {
          "internalType": "string",
          "name": "_name",
          "type": "string"
        }
      ],
      "name": "applyForLicense",
      "outputs": [],
      "stateMutability": "nonpayable",
      "type": "function"
    },
    {
      "inputs": [
        {
          "internalType": "address",
          "name": "_addr",
          "type": "address"
        }
      ],
      "name": "isLicenseValid",
      "outputs": [
        {
          "internalType": "bool",
          "name": "",
          "type": "bool"
        }
      ],
      "stateMutability": "view",
      "type": "function"
    },
    {
      "inputs": [
        {
          "internalType": "address",
          "name": "",
          "type": "address"
        }
      ],
      "name": "licenseInfo",
      "outputs": [
        {
          "internalType": "string",
          "name": "name",
          "type": "string"
        },
        {
          "internalType": "address",
          "name": "addr",
          "type": "address"
        },
        {
          "internalType": "bool",
          "name": "active",
          "type": "bool"
        },
        {
          "internalType": "uint256",
          "name": "licenseNumber",
          "type": "uint256"
        }
      ],
      "stateMutability": "view",
      "type": "function"
    },
    {
      "inputs": [],
      "name": "owner",
      "outputs": [
        {
          "internalType": "address",
          "name": "",
          "type": "address"
        }
      ],
      "stateMutability": "view",
      "type": "function"
    },
    {
      "inputs": [
        {
          "internalType": "address",
          "name": "_addr",
          "type": "address"
        }
      ],
      "name": "updateLicenseStatus",
      "outputs": [],
      "stateMutability": "nonpayable",
      "type": "function"
    }
  ],
  "bytecode": "0x608060405234801561001057600080fd5b5033600260006101000a81548173ffffffffffffffffffffffffffffffffffffffff021916908373ffffffffffffffffffffffffffffffffffffffff1602179055506000600181905550610bff806100696000396000f3fe608060405234801561001057600080fd5b50600436106100575760003560e01c8063795973231461005c5780638da5cb5b1461008f578063a27aab35146100ad578063a5a0dfae146100c9578063cabf42a6146100e5575b600080fd5b6100766004803603810190610071919061057f565b610115565b604051610086949392919061067f565b60405180910390f35b6100976101fa565b6040516100a491906106cb565b60405180910390f35b6100c760048036038101906100c2919061057f565b610220565b005b6100e360048036038101906100de919061074b565b61035b565b005b6100ff60048036038101906100fa919061057f565b6104bf565b60405161010c9190610798565b60405180910390f35b6000602052806000526040600020600091509050806000018054610138906107e2565b80601f0160208091040260200160405190810160405280929190818152602001828054610164906107e2565b80156101b15780601f10610186576101008083540402835291602001916101b1565b820191906000526020600020905b81548152906001019060200180831161019457829003601f168201915b5050505050908060010160009054906101000a900473ffffffffffffffffffffffffffffffffffffffff16908060010160149054906101000a900460ff16908060020154905084565b600260009054906101000a900473ffffffffffffffffffffffffffffffffffffffff1681565b600260009054906101000a900473ffffffffffffffffffffffffffffffffffffffff1673ffffffffffffffffffffffffffffffffffffffff163373ffffffffffffffffffffffffffffffffffffffff16146102b0576040517f08c379a00000000000000000000000000000000000000000000000000000000081526004016102a790610885565b60405180910390fd5b6000808273ffffffffffffffffffffffffffffffffffffffff1673ffffffffffffffffffffffffffffffffffffffff16815260200190815260200160002060010160149054906101000a900460ff16156000808373ffffffffffffffffffffffffffffffffffffffff1673ffffffffffffffffffffffffffffffffffffffff16815260200190815260200160002060010160146101000a81548160ff02191690831515021790555050565b6001600081548092919061036e906108d4565b9190505550604051806080016040528083838080601f016020809104026020016040519081016040528093929190818152602001838380828437600081840152601f19601f8201169050808301925050505050505081526020013373ffffffffffffffffffffffffffffffffffffffff1681526020016000151581526020016001548152506000803373ffffffffffffffffffffffffffffffffffffffff1673ffffffffffffffffffffffffffffffffffffffff16815260200190815260200160002060008201518160000190816104469190610af7565b5060208201518160010160006101000a81548173ffffffffffffffffffffffffffffffffffffffff021916908373ffffffffffffffffffffffffffffffffffffffff16021790555060408201518160010160146101000a81548160ff021916908315150217905550606082015181600201559050505050565b60008060008373ffffffffffffffffffffffffffffffffffffffff1673ffffffffffffffffffffffffffffffffffffffff16815260200190815260200160002060010160149054906101000a900460ff169050919050565b600080fd5b600080fd5b600073ffffffffffffffffffffffffffffffffffffffff82169050919050565b600061054c82610521565b9050919050565b61055c81610541565b811461056757600080fd5b50565b60008135905061057981610553565b92915050565b60006020828403121561059557610594610517565b5b60006105a38482850161056a565b91505092915050565b600081519050919050565b600082825260208201905092915050565b60005b838110156105e65780820151818401526020810190506105cb565b60008484015250505050565b6000601f19601f8301169050919050565b600061060e826105ac565b61061881856105b7565b93506106288185602086016105c8565b610631816105f2565b840191505092915050565b61064581610541565b82525050565b60008115159050919050565b6106608161064b565b82525050565b6000819050919050565b61067981610666565b82525050565b600060808201905081810360008301526106998187610603565b90506106a8602083018661063c565b6106b56040830185610657565b6106c26060830184610670565b95945050505050565b60006020820190506106e0600083018461063c565b92915050565b600080fd5b600080fd5b600080fd5b60008083601f84011261070b5761070a6106e6565b5b8235905067ffffffffffffffff811115610728576107276106eb565b5b602083019150836001820283011115610744576107436106f0565b5b9250929050565b6000806020838503121561076257610761610517565b5b600083013567ffffffffffffffff8111156107805761077f61051c565b5b61078c858286016106f5565b92509250509250929050565b60006020820190506107ad6000830184610657565b92915050565b7f4e487b7100000000000000000000000000000000000000000000000000000000600052602260045260246000fd5b600060028204905060018216806107fa57607f821691505b60208210810361080d5761080c6107b3565b5b50919050565b7f4f6e6c79206f776e65722063616e2063616c6c20746869732066756e6374696f60008201527f6e00000000000000000000000000000000000000000000000000000000000000602082015250565b600061086f6021836105b7565b915061087a82610813565b604082019050919050565b6000602082019050818103600083015261089e81610862565b9050919050565b7f4e487b7100000000000000000000000000000000000000000000000000000000600052601160045260246000fd5b60006108df82610666565b91507fffffffffffffffffffffffffffffffffffffffffffffffffffffffffffffffff8203610911576109106108a5565b5b600182019050919050565b7f4e487b7100000000000000000000000000000000000000000000000000000000600052604160045260246000fd5b60008190508160005260206000209050919050565b60006020601f8301049050919050565b600082821b905092915050565b6000600883026109ad7fffffffffffffffffffffffffffffffffffffffffffffffffffffffffffffffff82610970565b6109b78683610970565b95508019841693508086168417925050509392505050565b6000819050919050565b60006109f46109ef6109ea84610666565b6109cf565b610666565b9050919050565b6000819050919050565b610a0e836109d9565b610a22610a1a826109fb565b84845461097d565b825550505050565b600090565b610a37610a2a565b610a42818484610a05565b505050565b5b81811015610a6657610a5b600082610a2f565b600181019050610a48565b5050565b601f821115610aab57610a7c8161094b565b610a8584610960565b81016020851015610a94578190505b610aa8610aa085610960565b830182610a47565b50505b505050565b600082821c905092915050565b6000610ace60001984600802610ab0565b1980831691505092915050565b6000610ae78383610abd565b9150826002028217905092915050565b610b00826105ac565b67ffffffffffffffff811115610b1957610b1861091c565b5b610b2382546107e2565b610b2e828285610a6a565b600060209050601f831160018114610b615760008415610b4f578287015190505b610b598582610adb565b865550610bc1565b601f198416610b6f8661094b565b60005b82811015610b9757848901518255600182019150602085019450602081019050610b72565b86831015610bb45784890151610bb0601f891682610abd565b8355505b6001600288020188555050505b50505050505056fea2646970667358221220a6992fcb10f8dad773e3d7beb3f9b35e96aafe40bfc0f00d004d10c22f9c2af064736f6c63430008110033",
  "linkReferences": {},
  "deployedLinkReferences": {}
}