{
  "_format": "hh-sol-artifact-1",
  "contractName": "DrivingLicense",
  "sourceName": "contracts/src/DrivingLicense.sol",
  "abi": [
    {
      "inputs": [],
      "stateMutability": "nonpayable",
      "type": "constructor"
    },
    {
      "anonymous": false,
      "inputs": [
        {
          "indexed": false,
          "internalType": "uint256",
          "name": "timestamp",
          "type": "uint256"
        },
        {
          "indexed": false,
          "internalType": "uint256",
          "name": "licenseNumber",
          "type": "uint256"
        },
        {
          "indexed": false,
          "internalType": "string",
          "name": "holderName",
          "type": "string"
        },
        {
          "indexed": false,
          "internalType": "address",
          "name": "holderAddress",
          "type": "address"
        },
        {
          "indexed": false,
          "internalType": "string",
          "name": "contentHash",
          "type": "string"
        },
        {
          "indexed": false,
          "internalType": "bool",
          "name": "valid",
          "type": "bool"
        }
      ],
      "name": "LicenseRegistered",
      "type": "event"
    },
    {
      "anonymous": false,
      "inputs": [
        {
          "indexed": false,
          "internalType": "uint256",
          "name": "timestamp",
          "type": "uint256"
        },
        {
          "indexed": false,
          "internalType": "address",
          "name": "updater",
          "type": "address"
        },
        {
          "indexed": false,
          "internalType": "uint256",
          "name": "licenseNumber",
          "type": "uint256"
        },
        {
          "indexed": false,
          "internalType": "string",
          "name": "holderName",
          "type": "string"
        },
        {
          "indexed": false,
          "internalType": "address",
          "name": "holderAddress",
          "type": "address"
        },
        {
          "indexed": false,
          "internalType": "string",
          "name": "contentHash",
          "type": "string"
        },
        {
          "indexed": false,
          "internalType": "bool",
          "name": "valid",
          "type": "bool"
        }
      ],
      "name": "LicenseUpdated",
      "type": "event"
    },
    {
      "inputs": [
        {
          "internalType": "address",
          "name": "",
          "type": "address"
        }
      ],
      "name": "admins",
      "outputs": [
        {
          "internalType": "bool",
          "name": "",
          "type": "bool"
        }
      ],
      "stateMutability": "view",
      "type": "function"
    },
    {
      "inputs": [
        {
          "internalType": "string",
          "name": "_holderName",
          "type": "string"
        },
        {
          "internalType": "string",
          "name": "_contentHash",
          "type": "string"
        }
      ],
      "name": "applyForLicense",
      "outputs": [],
      "stateMutability": "nonpayable",
      "type": "function"
    },
    {
      "inputs": [
        {
          "internalType": "address",
          "name": "",
          "type": "address"
        }
      ],
      "name": "holderAddressToLicenseNumber",
      "outputs": [
        {
          "internalType": "uint256",
          "name": "",
          "type": "uint256"
        }
      ],
      "stateMutability": "view",
      "type": "function"
    },
    {
      "inputs": [
        {
          "internalType": "uint256",
          "name": "",
          "type": "uint256"
        }
      ],
      "name": "licenseNumberToLicense",
      "outputs": [
        {
          "internalType": "uint256",
          "name": "licenseNumber",
          "type": "uint256"
        },
        {
          "internalType": "string",
          "name": "holderName",
          "type": "string"
        },
        {
          "internalType": "address",
          "name": "holderAddress",
          "type": "address"
        },
        {
          "internalType": "string",
          "name": "contentHash",
          "type": "string"
        },
        {
          "internalType": "bool",
          "name": "valid",
          "type": "bool"
        }
      ],
      "stateMutability": "view",
      "type": "function"
    },
    {
      "inputs": [],
      "name": "owner",
      "outputs": [
        {
          "internalType": "address",
          "name": "",
          "type": "address"
        }
      ],
      "stateMutability": "view",
      "type": "function"
    },
    {
      "inputs": [
        {
          "internalType": "address",
          "name": "_adminAddress",
          "type": "address"
        }
      ],
      "name": "registerAdmin",
      "outputs": [],
      "stateMutability": "nonpayable",
      "type": "function"
    },
    {
      "inputs": [
        {
          "internalType": "address",
          "name": "_adminAddress",
          "type": "address"
        }
      ],
      "name": "removeAdmin",
      "outputs": [],
      "stateMutability": "nonpayable",
      "type": "function"
    },
    {
      "inputs": [
        {
          "internalType": "uint256",
          "name": "_licenseNumber",
          "type": "uint256"
        },
        {
          "internalType": "string",
          "name": "_contentHash",
          "type": "string"
        }
      ],
      "name": "updateLicenseContentHash",
      "outputs": [],
      "stateMutability": "nonpayable",
      "type": "function"
    },
    {
      "inputs": [
        {
          "internalType": "uint256",
          "name": "_licenseNumber",
          "type": "uint256"
        },
        {
          "internalType": "address",
          "name": "_holderAddress",
          "type": "address"
        }
      ],
      "name": "updateLicenseHolderAddress",
      "outputs": [],
      "stateMutability": "nonpayable",
      "type": "function"
    },
    {
      "inputs": [
        {
          "internalType": "uint256",
          "name": "_licenseNumber",
          "type": "uint256"
        },
        {
          "internalType": "string",
          "name": "_holderName",
          "type": "string"
        }
      ],
      "name": "updateLicenseHolderName",
      "outputs": [],
      "stateMutability": "nonpayable",
      "type": "function"
    },
    {
      "inputs": [
        {
          "internalType": "uint256",
          "name": "_licenseNumber",
          "type": "uint256"
        },
        {
          "internalType": "bool",
          "name": "_valid",
          "type": "bool"
        }
      ],
      "name": "updateLicenseValidity",
      "outputs": [],
      "stateMutability": "nonpayable",
      "type": "function"
    }
  ],
  "bytecode": "0x608060405234801561001057600080fd5b50336000806101000a81548173ffffffffffffffffffffffffffffffffffffffff021916908373ffffffffffffffffffffffffffffffffffffffff160217905550612290806100606000396000f3fe608060405234801561001057600080fd5b50600436106100a95760003560e01c80638da5cb5b116100715780638da5cb5b1461014e5780638dc0b9331461016c578063c38c58131461019c578063d0a1e2e2146101b8578063e18c7d1d146101d4578063e3c4f3a3146101f0576100a9565b80631785f53c146100ae5780631f8e2a58146100ca578063429b62e5146100e65780634ca6ac36146101165780635d85f0ad14610132575b600080fd5b6100c860048036038101906100c39190611796565b610224565b005b6100e460048036038101906100df91906117f9565b610361565b005b61010060048036038101906100fb9190611796565b610727565b60405161010d9190611854565b60405180910390f35b610130600480360381019061012b91906118d4565b610747565b005b61014c600480360381019061014791906118d4565b610adc565b005b610156610e71565b6040516101639190611943565b60405180910390f35b61018660048036038101906101819190611796565b610e95565b604051610193919061196d565b60405180910390f35b6101b660048036038101906101b19190611796565b610ead565b005b6101d260048036038101906101cd91906119b4565b610fe9565b005b6101ee60048036038101906101e991906119f4565b6112f0565b005b61020a60048036038101906102059190611a75565b611597565b60405161021b959493929190611b32565b60405180910390f35b600160003373ffffffffffffffffffffffffffffffffffffffff1673ffffffffffffffffffffffffffffffffffffffff16815260200190815260200160002060009054906101000a900460ff16806102c7575060008054906101000a900473ffffffffffffffffffffffffffffffffffffffff1673ffffffffffffffffffffffffffffffffffffffff163373ffffffffffffffffffffffffffffffffffffffff16145b610306576040517f08c379a00000000000000000000000000000000000000000000000000000000081526004016102fd90611c05565b60405180910390fd5b6000600160008373ffffffffffffffffffffffffffffffffffffffff1673ffffffffffffffffffffffffffffffffffffffff16815260200190815260200160002060006101000a81548160ff02191690831515021790555050565b600160003373ffffffffffffffffffffffffffffffffffffffff1673ffffffffffffffffffffffffffffffffffffffff16815260200190815260200160002060009054906101000a900460ff1680610404575060008054906101000a900473ffffffffffffffffffffffffffffffffffffffff1673ffffffffffffffffffffffffffffffffffffffff163373ffffffffffffffffffffffffffffffffffffffff16145b610443576040517f08c379a000000000000000000000000000000000000000000000000000000000815260040161043a90611c05565b60405180910390fd5b8161044e600261170a565b811115610490576040517f08c379a000000000000000000000000000000000000000000000000000000000815260040161048790611c71565b60405180910390fd5b6000600360008581526020019081526020016000206040518060a0016040529081600082015481526020016001820180546104ca90611cc0565b80601f01602080910402602001604051908101604052809291908181526020018280546104f690611cc0565b80156105435780601f1061051857610100808354040283529160200191610543565b820191906000526020600020905b81548152906001019060200180831161052657829003601f168201915b505050505081526020016002820160009054906101000a900473ffffffffffffffffffffffffffffffffffffffff1673ffffffffffffffffffffffffffffffffffffffff1673ffffffffffffffffffffffffffffffffffffffff1681526020016003820180546105b290611cc0565b80601f01602080910402602001604051908101604052809291908181526020018280546105de90611cc0565b801561062b5780601f106106005761010080835404028352916020019161062b565b820191906000526020600020905b81548152906001019060200180831161060e57829003601f168201915b505050505081526020016004820160009054906101000a900460ff1615151515815250509050600060046000836040015173ffffffffffffffffffffffffffffffffffffffff1673ffffffffffffffffffffffffffffffffffffffff1681526020019081526020016000208190555082816040019073ffffffffffffffffffffffffffffffffffffffff16908173ffffffffffffffffffffffffffffffffffffffff16815250507fbbca3f4a2e43d0e5046ec2d2a5870335a78cb632786fd92e984c32bc9964fd9e423386846020015187866060015187608001516040516107199796959493929190611cf1565b60405180910390a150505050565b60016020528060005260406000206000915054906101000a900460ff1681565b600160003373ffffffffffffffffffffffffffffffffffffffff1673ffffffffffffffffffffffffffffffffffffffff16815260200190815260200160002060009054906101000a900460ff16806107ea575060008054906101000a900473ffffffffffffffffffffffffffffffffffffffff1673ffffffffffffffffffffffffffffffffffffffff163373ffffffffffffffffffffffffffffffffffffffff16145b610829576040517f08c379a000000000000000000000000000000000000000000000000000000000815260040161082090611c05565b60405180910390fd5b82610834600261170a565b811115610876576040517f08c379a000000000000000000000000000000000000000000000000000000000815260040161086d90611c71565b60405180910390fd5b6000600360008681526020019081526020016000206040518060a0016040529081600082015481526020016001820180546108b090611cc0565b80601f01602080910402602001604051908101604052809291908181526020018280546108dc90611cc0565b80156109295780601f106108fe57610100808354040283529160200191610929565b820191906000526020600020905b81548152906001019060200180831161090c57829003601f168201915b505050505081526020016002820160009054906101000a900473ffffffffffffffffffffffffffffffffffffffff1673ffffffffffffffffffffffffffffffffffffffff1673ffffffffffffffffffffffffffffffffffffffff16815260200160038201805461099890611cc0565b80601f01602080910402602001604051908101604052809291908181526020018280546109c490611cc0565b8015610a115780601f106109e657610100808354040283529160200191610a11565b820191906000526020600020905b8154815290600101906020018083116109f457829003601f168201915b505050505081526020016004820160009054906101000a900460ff161515151581525050905083838080601f016020809104026020016040519081016040528093929190818152602001838380828437600081840152601f19601f8201169050808301925050505050505081606001819052507fbbca3f4a2e43d0e5046ec2d2a5870335a78cb632786fd92e984c32bc9964fd9e4233878460200151856040015189898860800151604051610acd989796959493929190611daa565b60405180910390a15050505050565b600160003373ffffffffffffffffffffffffffffffffffffffff1673ffffffffffffffffffffffffffffffffffffffff16815260200190815260200160002060009054906101000a900460ff1680610b7f575060008054906101000a900473ffffffffffffffffffffffffffffffffffffffff1673ffffffffffffffffffffffffffffffffffffffff163373ffffffffffffffffffffffffffffffffffffffff16145b610bbe576040517f08c379a0000000000000000000000000000000000000000000000000000000008152600401610bb590611c05565b60405180910390fd5b82610bc9600261170a565b811115610c0b576040517f08c379a0000000000000000000000000000000000000000000000000000000008152600401610c0290611c71565b60405180910390fd5b6000600360008681526020019081526020016000206040518060a001604052908160008201548152602001600182018054610c4590611cc0565b80601f0160208091040260200160405190810160405280929190818152602001828054610c7190611cc0565b8015610cbe5780601f10610c9357610100808354040283529160200191610cbe565b820191906000526020600020905b815481529060010190602001808311610ca157829003601f168201915b505050505081526020016002820160009054906101000a900473ffffffffffffffffffffffffffffffffffffffff1673ffffffffffffffffffffffffffffffffffffffff1673ffffffffffffffffffffffffffffffffffffffff168152602001600382018054610d2d90611cc0565b80601f0160208091040260200160405190810160405280929190818152602001828054610d5990611cc0565b8015610da65780601f10610d7b57610100808354040283529160200191610da6565b820191906000526020600020905b815481529060010190602001808311610d8957829003601f168201915b505050505081526020016004820160009054906101000a900460ff161515151581525050905083838080601f016020809104026020016040519081016040528093929190818152602001838380828437600081840152601f19601f8201169050808301925050505050505081602001819052507fbbca3f4a2e43d0e5046ec2d2a5870335a78cb632786fd92e984c32bc9964fd9e4233878787866040015187606001518860800151604051610e62989796959493929190611e29565b60405180910390a15050505050565b60008054906101000a900473ffffffffffffffffffffffffffffffffffffffff1681565b60046020528060005260406000206000915090505481565b600160003373ffffffffffffffffffffffffffffffffffffffff1673ffffffffffffffffffffffffffffffffffffffff16815260200190815260200160002060009054906101000a900460ff1680610f50575060008054906101000a900473ffffffffffffffffffffffffffffffffffffffff1673ffffffffffffffffffffffffffffffffffffffff163373ffffffffffffffffffffffffffffffffffffffff16145b610f8f576040517f08c379a0000000000000000000000000000000000000000000000000000000008152600401610f8690611c05565b60405180910390fd5b60018060008373ffffffffffffffffffffffffffffffffffffffff1673ffffffffffffffffffffffffffffffffffffffff16815260200190815260200160002060006101000a81548160ff02191690831515021790555050565b600160003373ffffffffffffffffffffffffffffffffffffffff1673ffffffffffffffffffffffffffffffffffffffff16815260200190815260200160002060009054906101000a900460ff168061108c575060008054906101000a900473ffffffffffffffffffffffffffffffffffffffff1673ffffffffffffffffffffffffffffffffffffffff163373ffffffffffffffffffffffffffffffffffffffff16145b6110cb576040517f08c379a00000000000000000000000000000000000000000000000000000000081526004016110c290611c05565b60405180910390fd5b6000600360008481526020019081526020016000206040518060a00160405290816000820154815260200160018201805461110590611cc0565b80601f016020809104026020016040519081016040528092919081815260200182805461113190611cc0565b801561117e5780601f106111535761010080835404028352916020019161117e565b820191906000526020600020905b81548152906001019060200180831161116157829003601f168201915b505050505081526020016002820160009054906101000a900473ffffffffffffffffffffffffffffffffffffffff1673ffffffffffffffffffffffffffffffffffffffff1673ffffffffffffffffffffffffffffffffffffffff1681526020016003820180546111ed90611cc0565b80601f016020809104026020016040519081016040528092919081815260200182805461121990611cc0565b80156112665780601f1061123b57610100808354040283529160200191611266565b820191906000526020600020905b81548152906001019060200180831161124957829003601f168201915b505050505081526020016004820160009054906101000a900460ff1615151515815250509050818160800190151590811515815250507fbbca3f4a2e43d0e5046ec2d2a5870335a78cb632786fd92e984c32bc9964fd9e423385846020015185604001518660600151886040516112e39796959493929190611cf1565b60405180910390a1505050565b6000600460003373ffffffffffffffffffffffffffffffffffffffff1673ffffffffffffffffffffffffffffffffffffffff168152602001908152602001600020541115611373576040517f08c379a000000000000000000000000000000000000000000000000000000000815260040161136a90611f1a565b60405180910390fd5b61137d6002611718565b6000611389600261170a565b90506040518060a0016040528082815260200186868080601f016020809104026020016040519081016040528093929190818152602001838380828437600081840152601f19601f8201169050808301925050505050505081526020013373ffffffffffffffffffffffffffffffffffffffff16815260200184848080601f016020809104026020016040519081016040528093929190818152602001838380828437600081840152601f19601f82011690508083019250505050505050815260200160001515815250600360008381526020019081526020016000206000820151816000015560208201518160010190816114859190612115565b5060408201518160020160006101000a81548173ffffffffffffffffffffffffffffffffffffffff021916908373ffffffffffffffffffffffffffffffffffffffff16021790555060608201518160030190816114e29190612115565b5060808201518160040160006101000a81548160ff02191690831515021790555090505080600460003373ffffffffffffffffffffffffffffffffffffffff1673ffffffffffffffffffffffffffffffffffffffff168152602001908152602001600020819055507f79df24885e894a7a61cda840d4dabdc168446e9298e5b330977b59f8cb39aa2c4282878733888860006040516115889897969594939291906121e7565b60405180910390a15050505050565b60036020528060005260406000206000915090508060000154908060010180546115c090611cc0565b80601f01602080910402602001604051908101604052809291908181526020018280546115ec90611cc0565b80156116395780601f1061160e57610100808354040283529160200191611639565b820191906000526020600020905b81548152906001019060200180831161161c57829003601f168201915b5050505050908060020160009054906101000a900473ffffffffffffffffffffffffffffffffffffffff169080600301805461167490611cc0565b80601f01602080910402602001604051908101604052809291908181526020018280546116a090611cc0565b80156116ed5780601f106116c2576101008083540402835291602001916116ed565b820191906000526020600020905b8154815290600101906020018083116116d057829003601f168201915b5050505050908060040160009054906101000a900460ff16905085565b600081600001549050919050565b6001816000016000828254019250508190555050565b600080fd5b600080fd5b600073ffffffffffffffffffffffffffffffffffffffff82169050919050565b600061176382611738565b9050919050565b61177381611758565b811461177e57600080fd5b50565b6000813590506117908161176a565b92915050565b6000602082840312156117ac576117ab61172e565b5b60006117ba84828501611781565b91505092915050565b6000819050919050565b6117d6816117c3565b81146117e157600080fd5b50565b6000813590506117f3816117cd565b92915050565b600080604083850312156118105761180f61172e565b5b600061181e858286016117e4565b925050602061182f85828601611781565b9150509250929050565b60008115159050919050565b61184e81611839565b82525050565b60006020820190506118696000830184611845565b92915050565b600080fd5b600080fd5b600080fd5b60008083601f8401126118945761189361186f565b5b8235905067ffffffffffffffff8111156118b1576118b0611874565b5b6020830191508360018202830111156118cd576118cc611879565b5b9250929050565b6000806000604084860312156118ed576118ec61172e565b5b60006118fb868287016117e4565b935050602084013567ffffffffffffffff81111561191c5761191b611733565b5b6119288682870161187e565b92509250509250925092565b61193d81611758565b82525050565b60006020820190506119586000830184611934565b92915050565b611967816117c3565b82525050565b6000602082019050611982600083018461195e565b92915050565b61199181611839565b811461199c57600080fd5b50565b6000813590506119ae81611988565b92915050565b600080604083850312156119cb576119ca61172e565b5b60006119d9858286016117e4565b92505060206119ea8582860161199f565b9150509250929050565b60008060008060408587031215611a0e57611a0d61172e565b5b600085013567ffffffffffffffff811115611a2c57611a2b611733565b5b611a388782880161187e565b9450945050602085013567ffffffffffffffff811115611a5b57611a5a611733565b5b611a678782880161187e565b925092505092959194509250565b600060208284031215611a8b57611a8a61172e565b5b6000611a99848285016117e4565b91505092915050565b600081519050919050565b600082825260208201905092915050565b60005b83811015611adc578082015181840152602081019050611ac1565b60008484015250505050565b6000601f19601f8301169050919050565b6000611b0482611aa2565b611b0e8185611aad565b9350611b1e818560208601611abe565b611b2781611ae8565b840191505092915050565b600060a082019050611b47600083018861195e565b8181036020830152611b598187611af9565b9050611b686040830186611934565b8181036060830152611b7a8185611af9565b9050611b896080830184611845565b9695505050505050565b7f4f6e6c7920617574686f72697a65642061646d696e732063616e2063616c6c2060008201527f746869732066756e6374696f6e00000000000000000000000000000000000000602082015250565b6000611bef602d83611aad565b9150611bfa82611b93565b604082019050919050565b60006020820190508181036000830152611c1e81611be2565b9050919050565b7f4c6963656e736520446f65736e6f742065786973747300000000000000000000600082015250565b6000611c5b601683611aad565b9150611c6682611c25565b602082019050919050565b60006020820190508181036000830152611c8a81611c4e565b9050919050565b7f4e487b7100000000000000000000000000000000000000000000000000000000600052602260045260246000fd5b60006002820490506001821680611cd857607f821691505b602082108103611ceb57611cea611c91565b5b50919050565b600060e082019050611d06600083018a61195e565b611d136020830189611934565b611d20604083018861195e565b8181036060830152611d328187611af9565b9050611d416080830186611934565b81810360a0830152611d538185611af9565b9050611d6260c0830184611845565b98975050505050505050565b82818337600083830152505050565b6000611d898385611aad565b9350611d96838584611d6e565b611d9f83611ae8565b840190509392505050565b600060e082019050611dbf600083018b61195e565b611dcc602083018a611934565b611dd9604083018961195e565b8181036060830152611deb8188611af9565b9050611dfa6080830187611934565b81810360a0830152611e0d818587611d7d565b9050611e1c60c0830184611845565b9998505050505050505050565b600060e082019050611e3e600083018b61195e565b611e4b602083018a611934565b611e58604083018961195e565b8181036060830152611e6b818789611d7d565b9050611e7a6080830186611934565b81810360a0830152611e8c8185611af9565b9050611e9b60c0830184611845565b9998505050505050505050565b7f4c6963656e736520616c7265616479206173736f63696174656420776974682060008201527f7468697320616464726573732e00000000000000000000000000000000000000602082015250565b6000611f04602d83611aad565b9150611f0f82611ea8565b604082019050919050565b60006020820190508181036000830152611f3381611ef7565b9050919050565b7f4e487b7100000000000000000000000000000000000000000000000000000000600052604160045260246000fd5b60008190508160005260206000209050919050565b60006020601f8301049050919050565b600082821b905092915050565b600060088302611fcb7fffffffffffffffffffffffffffffffffffffffffffffffffffffffffffffffff82611f8e565b611fd58683611f8e565b95508019841693508086168417925050509392505050565b6000819050919050565b600061201261200d612008846117c3565b611fed565b6117c3565b9050919050565b6000819050919050565b61202c83611ff7565b61204061203882612019565b848454611f9b565b825550505050565b600090565b612055612048565b612060818484612023565b505050565b5b818110156120845761207960008261204d565b600181019050612066565b5050565b601f8211156120c95761209a81611f69565b6120a384611f7e565b810160208510156120b2578190505b6120c66120be85611f7e565b830182612065565b50505b505050565b600082821c905092915050565b60006120ec600019846008026120ce565b1980831691505092915050565b600061210583836120db565b9150826002028217905092915050565b61211e82611aa2565b67ffffffffffffffff81111561213757612136611f3a565b5b6121418254611cc0565b61214c828285612088565b600060209050601f83116001811461217f576000841561216d578287015190505b61217785826120f9565b8655506121df565b601f19841661218d86611f69565b60005b828110156121b557848901518255600182019150602085019450602081019050612190565b868310156121d257848901516121ce601f8916826120db565b8355505b6001600288020188555050505b505050505050565b600060c0820190506121fc600083018b61195e565b612209602083018a61195e565b818103604083015261221c81888a611d7d565b905061222b6060830187611934565b818103608083015261223e818587611d7d565b905061224d60a0830184611845565b999850505050505050505056fea2646970667358221220e688fc19e1ee0aeb843ce78c581c8807fbfad1b9fa77f30ebadce2217cf76d8164736f6c63430008110033",
  "linkReferences": {},
  "deployedLinkReferences": {}
}