{
  "_format": "hh-sol-artifact-1",
  "contractName": "DrivingLicense",
  "sourceName": "contracts/src/DrivingLicense.sol",
  "abi": [
    {
      "inputs": [],
      "stateMutability": "nonpayable",
      "type": "constructor"
    },
    {
      "anonymous": false,
      "inputs": [
        {
          "indexed": false,
          "internalType": "uint256",
          "name": "timestamp",
          "type": "uint256"
        },
        {
          "indexed": false,
          "internalType": "uint256",
          "name": "licenseNumber",
          "type": "uint256"
        },
        {
          "indexed": false,
          "internalType": "string",
          "name": "holderName",
          "type": "string"
        },
        {
          "indexed": false,
          "internalType": "address",
          "name": "holderAddress",
          "type": "address"
        },
        {
          "indexed": false,
          "internalType": "string",
          "name": "contentHash",
          "type": "string"
        },
        {
          "indexed": false,
          "internalType": "bool",
          "name": "valid",
          "type": "bool"
        }
      ],
      "name": "LicenseRegistered",
      "type": "event"
    },
    {
      "anonymous": false,
      "inputs": [
        {
          "indexed": false,
          "internalType": "uint256",
          "name": "timestamp",
          "type": "uint256"
        },
        {
          "indexed": false,
          "internalType": "address",
          "name": "updater",
          "type": "address"
        },
        {
          "indexed": false,
          "internalType": "uint256",
          "name": "licenseNumber",
          "type": "uint256"
        },
        {
          "indexed": false,
          "internalType": "string",
          "name": "holderName",
          "type": "string"
        },
        {
          "indexed": false,
          "internalType": "address",
          "name": "holderAddress",
          "type": "address"
        },
        {
          "indexed": false,
          "internalType": "string",
          "name": "contentHash",
          "type": "string"
        },
        {
          "indexed": false,
          "internalType": "bool",
          "name": "valid",
          "type": "bool"
        }
      ],
      "name": "LicenseUpdated",
      "type": "event"
    },
    {
      "inputs": [
        {
          "internalType": "address",
          "name": "",
          "type": "address"
        }
      ],
      "name": "admins",
      "outputs": [
        {
          "internalType": "bool",
          "name": "",
          "type": "bool"
        }
      ],
      "stateMutability": "view",
      "type": "function"
    },
    {
      "inputs": [
        {
          "internalType": "string",
          "name": "_holderName",
          "type": "string"
        },
        {
          "internalType": "string",
          "name": "_contentHash",
          "type": "string"
        }
      ],
      "name": "applyForLicense",
      "outputs": [],
      "stateMutability": "nonpayable",
      "type": "function"
    },
    {
      "inputs": [
        {
          "internalType": "uint256",
          "name": "",
          "type": "uint256"
        }
      ],
      "name": "licenseNumberToLicense",
      "outputs": [
        {
          "internalType": "uint256",
          "name": "licenseNumber",
          "type": "uint256"
        },
        {
          "internalType": "string",
          "name": "holderName",
          "type": "string"
        },
        {
          "internalType": "address",
          "name": "holderAddress",
          "type": "address"
        },
        {
          "internalType": "string",
          "name": "contentHash",
          "type": "string"
        },
        {
          "internalType": "bool",
          "name": "valid",
          "type": "bool"
        }
      ],
      "stateMutability": "view",
      "type": "function"
    },
    {
      "inputs": [],
      "name": "owner",
      "outputs": [
        {
          "internalType": "address",
          "name": "",
          "type": "address"
        }
      ],
      "stateMutability": "view",
      "type": "function"
    },
    {
      "inputs": [
        {
          "internalType": "address",
          "name": "_adminAddress",
          "type": "address"
        }
      ],
      "name": "registerAdmin",
      "outputs": [],
      "stateMutability": "nonpayable",
      "type": "function"
    },
    {
      "inputs": [
        {
          "internalType": "address",
          "name": "_adminAddress",
          "type": "address"
        }
      ],
      "name": "removeAdmin",
      "outputs": [],
      "stateMutability": "nonpayable",
      "type": "function"
    },
    {
      "inputs": [
        {
          "internalType": "uint256",
          "name": "_licenseNumber",
          "type": "uint256"
        },
        {
          "internalType": "string",
          "name": "_contentHash",
          "type": "string"
        }
      ],
      "name": "updateLicenseContentHash",
      "outputs": [],
      "stateMutability": "nonpayable",
      "type": "function"
    },
    {
      "inputs": [
        {
          "internalType": "uint256",
          "name": "_licenseNumber",
          "type": "uint256"
        },
        {
          "internalType": "address",
          "name": "_holderAddress",
          "type": "address"
        }
      ],
      "name": "updateLicenseHolderAddress",
      "outputs": [],
      "stateMutability": "nonpayable",
      "type": "function"
    },
    {
      "inputs": [
        {
          "internalType": "uint256",
          "name": "_licenseNumber",
          "type": "uint256"
        },
        {
          "internalType": "string",
          "name": "_holderName",
          "type": "string"
        }
      ],
      "name": "updateLicenseHolderName",
      "outputs": [],
      "stateMutability": "nonpayable",
      "type": "function"
    },
    {
      "inputs": [
        {
          "internalType": "uint256",
          "name": "_licenseNumber",
          "type": "uint256"
        },
        {
          "internalType": "bool",
          "name": "_valid",
          "type": "bool"
        }
      ],
      "name": "updateLicenseValidity",
      "outputs": [],
      "stateMutability": "nonpayable",
      "type": "function"
    }
  ],
  "bytecode": "0x608060405234801561001057600080fd5b50336000806101000a81548173ffffffffffffffffffffffffffffffffffffffff021916908373ffffffffffffffffffffffffffffffffffffffff160217905550611f8e806100606000396000f3fe608060405234801561001057600080fd5b506004361061009e5760003560e01c80638da5cb5b116100665780638da5cb5b14610143578063c38c581314610161578063d0a1e2e21461017d578063e18c7d1d14610199578063e3c4f3a3146101b55761009e565b80631785f53c146100a35780631f8e2a58146100bf578063429b62e5146100db5780634ca6ac361461010b5780635d85f0ad14610127575b600080fd5b6100bd60048036038101906100b8919061163f565b6101e9565b005b6100d960048036038101906100d491906116a2565b610326565b005b6100f560048036038101906100f0919061163f565b6106a7565b60405161010291906116fd565b60405180910390f35b6101256004803603810190610120919061177d565b6106c7565b005b610141600480360381019061013c919061177d565b610a5e565b005b61014b610df5565b60405161015891906117ec565b60405180910390f35b61017b6004803603810190610176919061163f565b610e19565b005b61019760048036038101906101929190611833565b610f55565b005b6101b360048036038101906101ae9190611873565b611260565b005b6101cf60048036038101906101ca91906118f4565b611440565b6040516101e09594939291906119c0565b60405180910390f35b600160003373ffffffffffffffffffffffffffffffffffffffff1673ffffffffffffffffffffffffffffffffffffffff16815260200190815260200160002060009054906101000a900460ff168061028c575060008054906101000a900473ffffffffffffffffffffffffffffffffffffffff1673ffffffffffffffffffffffffffffffffffffffff163373ffffffffffffffffffffffffffffffffffffffff16145b6102cb576040517f08c379a00000000000000000000000000000000000000000000000000000000081526004016102c290611a93565b60405180910390fd5b6000600160008373ffffffffffffffffffffffffffffffffffffffff1673ffffffffffffffffffffffffffffffffffffffff16815260200190815260200160002060006101000a81548160ff02191690831515021790555050565b600160003373ffffffffffffffffffffffffffffffffffffffff1673ffffffffffffffffffffffffffffffffffffffff16815260200190815260200160002060009054906101000a900460ff16806103c9575060008054906101000a900473ffffffffffffffffffffffffffffffffffffffff1673ffffffffffffffffffffffffffffffffffffffff163373ffffffffffffffffffffffffffffffffffffffff16145b610408576040517f08c379a00000000000000000000000000000000000000000000000000000000081526004016103ff90611a93565b60405180910390fd5b8161041360026115b3565b811115610455576040517f08c379a000000000000000000000000000000000000000000000000000000000815260040161044c90611aff565b60405180910390fd5b6000600360008581526020019081526020016000206040518060a00160405290816000820154815260200160018201805461048f90611b4e565b80601f01602080910402602001604051908101604052809291908181526020018280546104bb90611b4e565b80156105085780601f106104dd57610100808354040283529160200191610508565b820191906000526020600020905b8154815290600101906020018083116104eb57829003601f168201915b505050505081526020016002820160009054906101000a900473ffffffffffffffffffffffffffffffffffffffff1673ffffffffffffffffffffffffffffffffffffffff1673ffffffffffffffffffffffffffffffffffffffff16815260200160038201805461057790611b4e565b80601f01602080910402602001604051908101604052809291908181526020018280546105a390611b4e565b80156105f05780601f106105c5576101008083540402835291602001916105f0565b820191906000526020600020905b8154815290600101906020018083116105d357829003601f168201915b505050505081526020016004820160009054906101000a900460ff161515151581525050905082816040019073ffffffffffffffffffffffffffffffffffffffff16908173ffffffffffffffffffffffffffffffffffffffff16815250507fbbca3f4a2e43d0e5046ec2d2a5870335a78cb632786fd92e984c32bc9964fd9e42338684602001518560400151866060015187608001516040516106999796959493929190611b7f565b60405180910390a150505050565b60016020528060005260406000206000915054906101000a900460ff1681565b600160003373ffffffffffffffffffffffffffffffffffffffff1673ffffffffffffffffffffffffffffffffffffffff16815260200190815260200160002060009054906101000a900460ff168061076a575060008054906101000a900473ffffffffffffffffffffffffffffffffffffffff1673ffffffffffffffffffffffffffffffffffffffff163373ffffffffffffffffffffffffffffffffffffffff16145b6107a9576040517f08c379a00000000000000000000000000000000000000000000000000000000081526004016107a090611a93565b60405180910390fd5b826107b460026115b3565b8111156107f6576040517f08c379a00000000000000000000000000000000000000000000000000000000081526004016107ed90611aff565b60405180910390fd5b6000600360008681526020019081526020016000206040518060a00160405290816000820154815260200160018201805461083090611b4e565b80601f016020809104026020016040519081016040528092919081815260200182805461085c90611b4e565b80156108a95780601f1061087e576101008083540402835291602001916108a9565b820191906000526020600020905b81548152906001019060200180831161088c57829003601f168201915b505050505081526020016002820160009054906101000a900473ffffffffffffffffffffffffffffffffffffffff1673ffffffffffffffffffffffffffffffffffffffff1673ffffffffffffffffffffffffffffffffffffffff16815260200160038201805461091890611b4e565b80601f016020809104026020016040519081016040528092919081815260200182805461094490611b4e565b80156109915780601f1061096657610100808354040283529160200191610991565b820191906000526020600020905b81548152906001019060200180831161097457829003601f168201915b505050505081526020016004820160009054906101000a900460ff161515151581525050905083838080601f016020809104026020016040519081016040528093929190818152602001838380828437600081840152601f19601f8201169050808301925050505050505081606001819052507fbbca3f4a2e43d0e5046ec2d2a5870335a78cb632786fd92e984c32bc9964fd9e4233878460200151856040015186606001518760800151604051610a4f9796959493929190611b7f565b60405180910390a15050505050565b600160003373ffffffffffffffffffffffffffffffffffffffff1673ffffffffffffffffffffffffffffffffffffffff16815260200190815260200160002060009054906101000a900460ff1680610b01575060008054906101000a900473ffffffffffffffffffffffffffffffffffffffff1673ffffffffffffffffffffffffffffffffffffffff163373ffffffffffffffffffffffffffffffffffffffff16145b610b40576040517f08c379a0000000000000000000000000000000000000000000000000000000008152600401610b3790611a93565b60405180910390fd5b82610b4b60026115b3565b811115610b8d576040517f08c379a0000000000000000000000000000000000000000000000000000000008152600401610b8490611aff565b60405180910390fd5b6000600360008681526020019081526020016000206040518060a001604052908160008201548152602001600182018054610bc790611b4e565b80601f0160208091040260200160405190810160405280929190818152602001828054610bf390611b4e565b8015610c405780601f10610c1557610100808354040283529160200191610c40565b820191906000526020600020905b815481529060010190602001808311610c2357829003601f168201915b505050505081526020016002820160009054906101000a900473ffffffffffffffffffffffffffffffffffffffff1673ffffffffffffffffffffffffffffffffffffffff1673ffffffffffffffffffffffffffffffffffffffff168152602001600382018054610caf90611b4e565b80601f0160208091040260200160405190810160405280929190818152602001828054610cdb90611b4e565b8015610d285780601f10610cfd57610100808354040283529160200191610d28565b820191906000526020600020905b815481529060010190602001808311610d0b57829003601f168201915b505050505081526020016004820160009054906101000a900460ff161515151581525050905083838080601f016020809104026020016040519081016040528093929190818152602001838380828437600081840152601f19601f8201169050808301925050505050505081602001819052507fbbca3f4a2e43d0e5046ec2d2a5870335a78cb632786fd92e984c32bc9964fd9e4233878460200151856040015186606001518760800151604051610de69796959493929190611b7f565b60405180910390a15050505050565b60008054906101000a900473ffffffffffffffffffffffffffffffffffffffff1681565b600160003373ffffffffffffffffffffffffffffffffffffffff1673ffffffffffffffffffffffffffffffffffffffff16815260200190815260200160002060009054906101000a900460ff1680610ebc575060008054906101000a900473ffffffffffffffffffffffffffffffffffffffff1673ffffffffffffffffffffffffffffffffffffffff163373ffffffffffffffffffffffffffffffffffffffff16145b610efb576040517f08c379a0000000000000000000000000000000000000000000000000000000008152600401610ef290611a93565b60405180910390fd5b60018060008373ffffffffffffffffffffffffffffffffffffffff1673ffffffffffffffffffffffffffffffffffffffff16815260200190815260200160002060006101000a81548160ff02191690831515021790555050565b600160003373ffffffffffffffffffffffffffffffffffffffff1673ffffffffffffffffffffffffffffffffffffffff16815260200190815260200160002060009054906101000a900460ff1680610ff8575060008054906101000a900473ffffffffffffffffffffffffffffffffffffffff1673ffffffffffffffffffffffffffffffffffffffff163373ffffffffffffffffffffffffffffffffffffffff16145b611037576040517f08c379a000000000000000000000000000000000000000000000000000000000815260040161102e90611a93565b60405180910390fd5b6000600360008481526020019081526020016000206040518060a00160405290816000820154815260200160018201805461107190611b4e565b80601f016020809104026020016040519081016040528092919081815260200182805461109d90611b4e565b80156110ea5780601f106110bf576101008083540402835291602001916110ea565b820191906000526020600020905b8154815290600101906020018083116110cd57829003601f168201915b505050505081526020016002820160009054906101000a900473ffffffffffffffffffffffffffffffffffffffff1673ffffffffffffffffffffffffffffffffffffffff1673ffffffffffffffffffffffffffffffffffffffff16815260200160038201805461115990611b4e565b80601f016020809104026020016040519081016040528092919081815260200182805461118590611b4e565b80156111d25780601f106111a7576101008083540402835291602001916111d2565b820191906000526020600020905b8154815290600101906020018083116111b557829003601f168201915b505050505081526020016004820160009054906101000a900460ff1615151515815250509050818160800190151590811515815250507fbbca3f4a2e43d0e5046ec2d2a5870335a78cb632786fd92e984c32bc9964fd9e42338584602001518560400151866060015187608001516040516112539796959493929190611b7f565b60405180910390a1505050565b61126a60026115c1565b600061127660026115b3565b90506040518060a0016040528082815260200186868080601f016020809104026020016040519081016040528093929190818152602001838380828437600081840152601f19601f8201169050808301925050505050505081526020013373ffffffffffffffffffffffffffffffffffffffff16815260200184848080601f016020809104026020016040519081016040528093929190818152602001838380828437600081840152601f19601f82011690508083019250505050505050815260200160001515815250600360008381526020019081526020016000206000820151816000015560208201518160010190816113729190611dd7565b5060408201518160020160006101000a81548173ffffffffffffffffffffffffffffffffffffffff021916908373ffffffffffffffffffffffffffffffffffffffff16021790555060608201518160030190816113cf9190611dd7565b5060808201518160040160006101000a81548160ff0219169083151502179055509050507f79df24885e894a7a61cda840d4dabdc168446e9298e5b330977b59f8cb39aa2c428287873388886000604051611431989796959493929190611ee5565b60405180910390a15050505050565b600360205280600052604060002060009150905080600001549080600101805461146990611b4e565b80601f016020809104026020016040519081016040528092919081815260200182805461149590611b4e565b80156114e25780601f106114b7576101008083540402835291602001916114e2565b820191906000526020600020905b8154815290600101906020018083116114c557829003601f168201915b5050505050908060020160009054906101000a900473ffffffffffffffffffffffffffffffffffffffff169080600301805461151d90611b4e565b80601f016020809104026020016040519081016040528092919081815260200182805461154990611b4e565b80156115965780601f1061156b57610100808354040283529160200191611596565b820191906000526020600020905b81548152906001019060200180831161157957829003601f168201915b5050505050908060040160009054906101000a900460ff16905085565b600081600001549050919050565b6001816000016000828254019250508190555050565b600080fd5b600080fd5b600073ffffffffffffffffffffffffffffffffffffffff82169050919050565b600061160c826115e1565b9050919050565b61161c81611601565b811461162757600080fd5b50565b60008135905061163981611613565b92915050565b600060208284031215611655576116546115d7565b5b60006116638482850161162a565b91505092915050565b6000819050919050565b61167f8161166c565b811461168a57600080fd5b50565b60008135905061169c81611676565b92915050565b600080604083850312156116b9576116b86115d7565b5b60006116c78582860161168d565b92505060206116d88582860161162a565b9150509250929050565b60008115159050919050565b6116f7816116e2565b82525050565b600060208201905061171260008301846116ee565b92915050565b600080fd5b600080fd5b600080fd5b60008083601f84011261173d5761173c611718565b5b8235905067ffffffffffffffff81111561175a5761175961171d565b5b60208301915083600182028301111561177657611775611722565b5b9250929050565b600080600060408486031215611796576117956115d7565b5b60006117a48682870161168d565b935050602084013567ffffffffffffffff8111156117c5576117c46115dc565b5b6117d186828701611727565b92509250509250925092565b6117e681611601565b82525050565b600060208201905061180160008301846117dd565b92915050565b611810816116e2565b811461181b57600080fd5b50565b60008135905061182d81611807565b92915050565b6000806040838503121561184a576118496115d7565b5b60006118588582860161168d565b92505060206118698582860161181e565b9150509250929050565b6000806000806040858703121561188d5761188c6115d7565b5b600085013567ffffffffffffffff8111156118ab576118aa6115dc565b5b6118b787828801611727565b9450945050602085013567ffffffffffffffff8111156118da576118d96115dc565b5b6118e687828801611727565b925092505092959194509250565b60006020828403121561190a576119096115d7565b5b60006119188482850161168d565b91505092915050565b61192a8161166c565b82525050565b600081519050919050565b600082825260208201905092915050565b60005b8381101561196a57808201518184015260208101905061194f565b60008484015250505050565b6000601f19601f8301169050919050565b600061199282611930565b61199c818561193b565b93506119ac81856020860161194c565b6119b581611976565b840191505092915050565b600060a0820190506119d56000830188611921565b81810360208301526119e78187611987565b90506119f660408301866117dd565b8181036060830152611a088185611987565b9050611a1760808301846116ee565b9695505050505050565b7f4f6e6c7920617574686f72697a65642061646d696e732063616e2063616c6c2060008201527f746869732066756e6374696f6e00000000000000000000000000000000000000602082015250565b6000611a7d602d8361193b565b9150611a8882611a21565b604082019050919050565b60006020820190508181036000830152611aac81611a70565b9050919050565b7f4c6963656e736520446f65736e6f742065786973747300000000000000000000600082015250565b6000611ae960168361193b565b9150611af482611ab3565b602082019050919050565b60006020820190508181036000830152611b1881611adc565b9050919050565b7f4e487b7100000000000000000000000000000000000000000000000000000000600052602260045260246000fd5b60006002820490506001821680611b6657607f821691505b602082108103611b7957611b78611b1f565b5b50919050565b600060e082019050611b94600083018a611921565b611ba160208301896117dd565b611bae6040830188611921565b8181036060830152611bc08187611987565b9050611bcf60808301866117dd565b81810360a0830152611be18185611987565b9050611bf060c08301846116ee565b98975050505050505050565b7f4e487b7100000000000000000000000000000000000000000000000000000000600052604160045260246000fd5b60008190508160005260206000209050919050565b60006020601f8301049050919050565b600082821b905092915050565b600060088302611c8d7fffffffffffffffffffffffffffffffffffffffffffffffffffffffffffffffff82611c50565b611c978683611c50565b95508019841693508086168417925050509392505050565b6000819050919050565b6000611cd4611ccf611cca8461166c565b611caf565b61166c565b9050919050565b6000819050919050565b611cee83611cb9565b611d02611cfa82611cdb565b848454611c5d565b825550505050565b600090565b611d17611d0a565b611d22818484611ce5565b505050565b5b81811015611d4657611d3b600082611d0f565b600181019050611d28565b5050565b601f821115611d8b57611d5c81611c2b565b611d6584611c40565b81016020851015611d74578190505b611d88611d8085611c40565b830182611d27565b50505b505050565b600082821c905092915050565b6000611dae60001984600802611d90565b1980831691505092915050565b6000611dc78383611d9d565b9150826002028217905092915050565b611de082611930565b67ffffffffffffffff811115611df957611df8611bfc565b5b611e038254611b4e565b611e0e828285611d4a565b600060209050601f831160018114611e415760008415611e2f578287015190505b611e398582611dbb565b865550611ea1565b601f198416611e4f86611c2b565b60005b82811015611e7757848901518255600182019150602085019450602081019050611e52565b86831015611e945784890151611e90601f891682611d9d565b8355505b6001600288020188555050505b505050505050565b82818337600083830152505050565b6000611ec4838561193b565b9350611ed1838584611ea9565b611eda83611976565b840190509392505050565b600060c082019050611efa600083018b611921565b611f07602083018a611921565b8181036040830152611f1a81888a611eb8565b9050611f2960608301876117dd565b8181036080830152611f3c818587611eb8565b9050611f4b60a08301846116ee565b999850505050505050505056fea2646970667358221220611fe9f15533194d4428be3d6b07252bfb9dfb78dfa7887d717438e13615ba8b64736f6c63430008110033",
  "linkReferences": {},
  "deployedLinkReferences": {}
}